:100000000C9462000C948A000C948A000C948A0070
:100010000C948A000C948A000C948A000C948A0038
:100020000C948A000C948A000C948A000C9442046C
:100030000C948A000C948A000C948A000C948A0018
:100040000C94F8030C948A000C94C6030C94A0033F
:100050000C948A000C948A000C948A000C948A00F8
:100060000C948A000C948A000000000024002700F1
:100070002A0000000000250028002B0000000000DE
:1000800023002600290004040404040404040202DA
:100090000202020203030303030301020408102007
:1000A0004080010204081020010204081020000012
:1000B0000008000201000003040700000000000027
:1000C0000000FE0411241FBECFEFD8E0DEBFCDBF7D
:1000D00013E0A0E0B1E0EEE5F1E102C005900D9281
:1000E000A039B107D9F724E0A0E9B3E001C01D921F
:1000F000A636B207E1F710E0C2E6D0E004C02197CF
:10010000FE010E94A708C136D107C9F70E945B050E
:100110000C94AD080C9400008F929F92AF92BF9206
:10012000FF920F931F93CF93DF93F09063042BE024
:100130002F1508F44CC02091650408E512E0021B5D
:10014000110927FD1395000F111F000F111F20919A
:100150006404C8E8D0E0C21BD10927FDD395CC0FB9
:10016000DD1FCC0FDD1F4E010D2E000CAA08BB08B1
:100170009801012E000C440B550B281939094A0926
:100180005B09DC010E94620824EB30E040E050E0B3
:100190000E943808820E931EA41EB51E8C169D0662
:1001A0002CF0E801801691060CF4E4012297CC0FA4
:1001B000DD1F2FB7F8948F2D90E0FC01EE0FFF1F8D
:1001C000E80FF91FE25CFB4FD283C1832FBFDF91A1
:1001D000CF911F910F91FF90BF90AF909F908F9004
:1001E0000895AF92BF92CF92DF92EF92FF920F935A
:1001F0001F93CF93DF936C017B018B01040F151FBD
:10020000EB015E01AE18BF08C017D10759F0699124
:10021000D601ED91FC910190F081E02DC601099588
:10022000892B79F7C501DF91CF911F910F91FF9035
:10023000EF90DF90CF90BF90AF900895FC01538D69
:10024000448D252F30E0842F90E0821B930B5417B0
:1002500010F0CF96089501970895FC01918D828D3D
:10026000981761F0A28DAE0FBF2FB11D5D968C91D6
:10027000928D9F5F9F73928F90E008958FEF9FEF15
:100280000895FC01918D828D981731F0828DE80FD1
:10029000F11D858D90E008958FEF9FEF0895FC018B
:1002A000918D228D892F90E0805C9F4F821B910958
:1002B0008F739927089581EA93E00E944F0121E00E
:1002C000892B09F420E0822F089580E090E0892BAB
:1002D00029F00E945B0181110C9400000895FC013B
:1002E000A48DA80FB92FB11DA35ABF4F2C91848D97
:1002F00090E001968F739927848FA689B7892C93F4
:10030000A089B1898C91837080648C93938D848D46
:10031000981306C00288F389E02D80818F7D808349
:100320000895EF92FF920F931F93CF93DF93EC0109
:1003300081E0888F9B8D8C8D98131AC0E889F9898C
:10034000808185FF15C09FB7F894EE89FF8960838F
:10035000E889F98980818370806480839FBF81E010
:1003600090E0DF91CF911F910F91FF90EF90089552
:10037000F62E0B8D10E00F5F1F4F0F731127E02E2D
:100380008C8D8E110CC00FB607FCFACFE889F98965
:10039000808185FFF5CFCE010E946F01F1CFEB8DFB
:1003A000EC0FFD2FF11DE35AFF4FF0829FB7F89439
:1003B0000B8FEA89FB8980818062CFCFCF93DF9357
:1003C000EC01888D8823B9F0AA89BB89E889F9896D
:1003D0008C9185FD03C0808186FD0DC00FB607FCA2
:1003E000F7CF8C9185FFF2CF808185FFEDCFCE01D5
:1003F0000E946F01E9CFDF91CF910895833081F0A2
:1004000028F4813099F08230A9F008958730A9F05E
:100410008830C9F08430B1F4809180008F7D03C0B2
:10042000809180008F7780938000089584B58F77C6
:1004300084BD089584B58F7DFBCF8091B0008F7708
:100440008093B00008958091B0008F7DF9CFCF9355
:10045000DF93282F30E0F901E255FF4F8491F90135
:10046000E656FF4FD491F901EA57FF4FC491CC23D0
:10047000A1F081110E94FE01EC2FF0E0EE0FFF1FB2
:10048000E458FF4FA591B491EC91ED2381E090E009
:1004900009F480E0DF91CF91089580E090E0FACFF9
:1004A0001F93CF93DF93282F30E0F901E255FF4FE0
:1004B0008491F901E656FF4FD491F901EA57FF4FB5
:1004C000C491CC23A9F0162F81110E94FE01EC2FBC
:1004D000F0E0EE0FFF1FEE58FF4FA591B4918FB7DC
:1004E000F894EC91111108C0D095DE23DC938FBFF6
:1004F000DF91CF911F910895DE2BF8CFCF93DF933B
:1005000090E0FC01E656FF4F24918A579F4FFC0173
:1005100084918823D1F090E0880F991FFC01E8595D
:10052000FF4FA591B491FC01EE58FF4FC591D491B6
:10053000623071F49FB7F8943C91822F80958323A9
:100540008C93E8812E2B28839FBFDF91CF91089554
:100550008FB7F894EC912E2B2C938FBFF6CF8E5043
:10056000806480937C0080917A00806480937A001C
:1005700080917A0086FDFCCF80917800909179007F
:1005800008953FB7F8948091940390919503A091BA
:100590009603B091970326B5A89B05C02F3F19F08D
:1005A0000196A11DB11D3FBFBA2FA92F982F8827F3
:1005B000BC01CD01620F711D811D911D42E0660FCE
:1005C000771F881F991F4A95D1F708958F929F92A0
:1005D000AF92BF92CF92DF92EF92FF924B015C01FC
:1005E0000E94C1026B017C010E94C1026C197D094D
:1005F0008E099F09683E734081059105A8F321E0AB
:10060000821A9108A108B10888EEC80E83E0D81EAE
:10061000E11CF11C81149104A104B10429F7FF909D
:10062000EF90DF90CF90BF90AF909F908F90089504
:10063000FC0101900020E9F73197AF01481B590BED
:10064000BC0181EA93E00C94F10084E191E00C9408
:100650001803CF93DF930E941803EC010E94250337
:100660008C0F9D1FDF91CF910895CF93DF93EC0105
:10067000909391038093900360E088E00E94500281
:1006800060E089E00E94500260E08AE00E9450022F
:1006900060E08BE00E94500261E0C230D105A1F021
:1006A000C330D105B9F0219749F088E00E9450028B
:1006B00087E191E0DF91CF910C94290389E00E94BA
:1006C00050028FE291E0F6CF8AE00E94500289E466
:1006D00091E0F0CF8BE00E94500285E691E0EACFF6
:1006E00086E00E942702892BD9F48091A003811112
:1006F00018C081E08093A00383E090E00E9435035E
:1007000010929D0381E791E00E94290382E991E024
:100710000E94290381E791E00E94290381E0089566
:1007200080E0089582EB91E00E9429038AE590E041
:100730000E948C006CEB72E080E090E00C94E6028A
:100740001F920F920FB60F9211242F933F934F9346
:100750005F936F937F938F939F93AF93BF93EF9329
:10076000FF9381EA93E00E946F01FF91EF91BF91A7
:10077000AF919F918F917F916F915F914F913F9139
:100780002F910F900FBE0F901F9018951F920F92F0
:100790000FB60F9211242F938F939F93EF93FF9394
:1007A000E091B103F091B2038081E091B703F09141
:1007B000B80382FD1BC090818091BA038F5F8F7355
:1007C0002091BB03821741F0E091BA03F0E0EF55AE
:1007D000FC4F958F8093BA03FF91EF919F918F917A
:1007E0002F910F900FBE0F901F9018958081F4CF1E
:1007F0001F920F920FB60F9211242F933F938F9356
:100800009F93AF93BF938091990390919A03A09186
:100810009B03B0919C033091930323E0230F2D376A
:1008200058F50196A11DB11D209393038093990360
:1008300090939A03A0939B03B0939C03809194039D
:1008400090919503A0919603B09197030196A11DF5
:10085000B11D8093940390939503A0939603B09356
:100860009703BF91AF919F918F913F912F910F90DF
:100870000FBE0F901F90189526E8230F0296A11D1A
:10088000B11DD2CF1F920F920FB60F9211242F934A
:100890003F934F935F936F937F938F939F93AF9308
:1008A000BF93CF93DF93EF93FF9380919203C09117
:1008B0006204D0E087FF24C010928500109284006B
:1008C000809192038F5F8093920380919203082E10
:1008D000000C990B8C179D0724F4809192038C30A7
:1008E000C4F18091840090918500049680349C49E5
:1008F00008F47AC08091840090918500049676C0B7
:1009000080919203082E000C990B8C179D07C4F65A
:10091000E09192038E2FEE0F990BFC01EE0FFF1F5B
:10092000E80FF91FE25CFB4F808186FFC9CFE091A1
:1009300092038E2FEE0F990BFC01EE0FFF1FE80FB5
:10094000F91FE25CFB4F808160E08F730E945002D0
:10095000B7CF2091840030918500E09192038E2FD3
:10096000EE0F990BFC01EE0FFF1FE80FF91FE25C81
:10097000FB4F81819281820F931F90938900809316
:100980008800E09192038E2FEE0F990BFC01EE0F81
:10099000FF1FE80FF91FE25CFB4F808186FF11C04B
:1009A000E09192038E2FEE0F990BFC01EE0FFF1FCB
:1009B000E80FF91FE25CFB4F808161E08F730E94BA
:1009C0005002FF91EF91DF91CF91BF91AF919F9135
:1009D0008F917F916F915F914F913F912F910F90E8
:1009E0000FBE0F901F90189580E49CE990938900AA
:1009F000809388008FEF80939203E3CF1092A4033B
:100A00001092A30388EE93E0A0E0B0E08093A503EA
:100A10009093A603A093A703B093A80386E091E068
:100A20009093A2038093A10385EC90E09093AE0392
:100A30008093AD0384EC90E09093B0038093AF0378
:100A400080EC90E09093B2038093B10381EC90E04E
:100A50009093B4038093B30382EC90E09093B60339
:100A60008093B50386EC90E09093B8038093B7032E
:100A70001092BA031092BB031092BC031092BD03F4
:100A8000809162048C3098F491E0980F9093620406
:100A90008093630490E0FC01EE0FFF1FE80FF91F45
:100AA000E25CFB4F88EB9BE09283818308958FEF9C
:100AB000809363040895CF93DF93CDB7DEB7A197FA
:100AC0000FB6F894DEBF0FBECDBF789484B58260B8
:100AD00084BD84B5816084BD85B5826085BD85B5E2
:100AE000816085BD80916E00816080936E00109260
:100AF00081008091810082608093810080918100DB
:100B0000816080938100809180008160809380006B
:100B10008091B10084608093B1008091B0008160C9
:100B20008093B00080917A00846080937A008091F5
:100B30007A00826080937A0080917A00816080934D
:100B40007A0080917A00806880937A001092C100C8
:100B5000E091B103F091B20382E08083E091AD03B4
:100B6000F091AE031082E091AF03F091B00380E109
:100B700080831092B903E091B503F091B60386E04B
:100B80008083E091B303F091B4038081806180831E
:100B9000E091B303F091B403808188608083E09199
:100BA000B303F091B403808180688083E091B30344
:100BB000F091B40380818F7D8083809163048C30B9
:100BC00008F051C061E085E00E947E0280916304DC
:100BD000282F30E0F901EE0FFF1FE20FF31FE25C58
:100BE000FB4F9081907C95609083109264041092EA
:100BF00065042CE0622F0E949B08829FB0011124A3
:100C000030E020E0AB01420F531FFA01EE0FFF1F4F
:100C1000E40FF51FE25CFB4F908196FD16C02F5F3D
:100C20003F4F2C30310571F781110FC010928000B9
:100C300082E0809381001092850010928400B19A26
:100C400080916F00826080936F00E09163048E2F2B
:100C500090E0FC01EE0FFF1FE80FF91FE25CFB4F75
:100C60008081806480838AE590E00E948C0062E04D
:100C700086E00E947E0262E08DE00E947E0261E0DA
:100C800082E00E947E0261E083E00E947E0261E0D9
:100C900084E00E947E0261E088E00E947E0261E0C2
:100CA00089E00E947E0261E08AE00E947E0261E0AB
:100CB0008BE00E947E0290E080E00E94350360E0BD
:100CC00084E00E94500286EC91E00E94290388EDA6
:100CD00091E00E94290386EF91E00E9429038AE0B7
:100CE000882E912CA12CB12C9BE7E92E9CE0F92EAB
:100CF00066246A94762C8091A003882309F441C06D
:100D00008DE00E942702892B81F50E94250381E74F
:100D100091E00E9429038CE092E00E94290381E780
:100D200091E00E9429031092A00310929803109260
:100D30009D0370920101609200010E94920364EF92
:100D400071E080E090E00E94E60290E080E00E9486
:100D5000350383E292E00E9429030E94250364EF99
:100D600071E080E090E00E94E60280E090E0892B54
:100D700011F20E945B01882309F4BDCF0E9400009C
:100D8000BACF8FE00E94AF0290939F0380939E039F
:100D90000E94700381116DC086E00E94270286E0E8
:100DA0000E9427020FEF1FEF892B21F08EE00E9497
:100DB000AF028C0180910001909101019801281BE4
:100DC000390BC90137FF03C091958195910945976A
:100DD000B4F182E392E00E9418031801012E000C86
:100DE0004408550857FEFDC06DE281EA93E00E9479
:100DF000910122273327A9012219330944095509F2
:100E000019A2CE0181966C01CA01B901A501940114
:100E10000E946A08605DF60162936F012115310539
:100E20004105510589F7C114D10419F0C6010E948A
:100E300018030E9425031093010100930001809183
:100E40009803043611050CF0E2C08111F7C081E06F
:100E500090E00E94350388E392E00E942903F1E0CC
:100E6000F0939803F0939D030E947003882309F484
:100E7000E5C080919D03882309F477CF83E992E050
:100E80000E94290384EB92E00E94290387EC92E000
:100E90000E94290383E992E00E94290382E090E006
:100EA0000E94350361E083E00E94500200ED17E0EC
:100EB0000E947003811182C061E082E00E945002B2
:100EC000C7010197F1F760E082E00E945002C7017C
:100ED0000197F1F70150110959F764EF71E080E0D3
:100EE00090E00E94E6028BED92E00E9429038FB70A
:100EF000F8942090990330909A0340909B0350906F
:100F00009C038FBF2FB7F8948091990390919A0317
:100F1000A0919B03B0919C032FBF82199309A40950
:100F2000B50988389341A105B10508F095C00E9424
:100F30007003811191C08FE00E94AF0220919E0347
:100F400030919F03821B930B97FF03C0919581956E
:100F50009109853691050CF478C082E093E00E94F7
:100F600029038DE193E00E94290390E080E00E9434
:100F70008C006CEB72E080E090E00E94E60260E0A2
:100F800083E00E94500200ED17E00E94700381117F
:100F900015C061E082E00E945002C7010197F1F79D
:100FA00060E082E00E945002C7010197F1F7015012
:100FB000110959F780E393E00E9429038091A0036F
:100FC0008111D3CE10929D030E94920390E080E0A5
:100FD0000E9435038EE493E00E9429030E942503BA
:100FE000C4CEA201910119A2CE0181966C01CA0161
:100FF000B901A50194010E946A08605DF60162933F
:101000006F01211531054105510589F70CCF882362
:10101000A9F01092980380E592E00E9429038AE6E5
:1010200092E00E94290368E873E180E090E00E946A
:10103000E60282E892E00E9429031BCF68EC70E090
:1010400080E090E00E94E602A3CE62E370E080E0E0
:1010500090E00E94E60256CF83E793E00E942903C6
:1010600083E090E00E94350391E09093A003A6CF27
:10107000052E97FB1EF400940E944F0857FD07D0E1
:101080000E946A0807FC03D04EF40C944F08509558
:101090004095309521953F4F4F4F5F4F0895909564
:1010A0008095709561957F4F8F4F9F4F08950E9457
:1010B0008C08A59F900DB49F900DA49F800D911D4D
:1010C00011240895B7FF0C9457080E945708821BFB
:1010D000930B0895A1E21A2EAA1BBB1BFD010DC0A4
:1010E000AA1FBB1FEE1FFF1FA217B307E407F507D8
:1010F00020F0A21BB30BE40BF50B661F771F881FB4
:10110000991F1A9469F760957095809590959B0149
:10111000AC01BD01CF010895A29FB001B39FC001F2
:10112000A39F700D811D1124911DB29F700D811D13
:101130001124911D0895991B79E004C0991F9617F9
:1011400008F0961B881F7A95C9F780950895EE0FD1
:0E115000FF1F0590F491E02D0994F894FFCF55
:10115E00FFFF000000009101F1001E01DE014F01B2
:10116E002D0141010D0A005B4C45445D2045737411
:10117E0061646F3A204553504552414E444F005BD7
:10118E004C45445D2045737461646F3A20494D505F
:10119E0052494D49454E444F005B4C45445D2045F8
:1011AE00737461646F3A205452414E53504F5254EF
:1011BE00414E444F005B4C45445D204552524F52C8
:1011CE00003D3D3D3D3D3D3D3D3D3D3D3D3D3D3D7E
:1011DE003D3D3D3D3D3D3D3D3D3D3D3D3D3D3D3D31
:1011EE003D004552524F523A2053656E736F722036
:1011FE004C445220646573636F6E65637461646FF3
:10120E002E0053756269656E646F2062617272653D
:10121E0072612E2E2E0053697374656D6120696E96
:10122E0069636961646F2E0042617272657261203A
:10123E00656E20706F73696369C3B36E20696E69E2
:10124E006369616C2E004573706572616E646F2008
:10125E0074726162616A6F732E2E2E005265696E12
:10126E00696369616E646F2073697374656D612E55
:10127E002E2E0053697374656D61206C6973746FE3
:10128E002E004C757A3A20003E3E3E20496D70721B
:10129E00657369C3B36E20696E69636961646100C9
:1012AE003E3E3E20496D7072657369C3B36E206613
:1012BE00696E616C697A6164610045737065726113
:1012CE006E646F203520736567756E646F732E2E96
:1012DE002E005469656D706F2063756D706C696456
:1012EE006F2E002D2D2D2D2D2D2D2D2D2D2D2D2D0A
:1012FE002D2D2D2D2D2D2D2D2D2D2D2D2D2D2D2D10
:10130E002D2D2D0054726162616A6F2064657465C3
:10131E00637461646F2E004D6F7669656E646F2025
:10132E0062616E64656A612E2E2E00457370657261
:10133E00616E646F206C6C656761646120616C2006
:10134E0073656E736F7220646520746F70652E2ED8
:10135E002E0042616E64656A61206C6C6567C3B372
:10136E0020616C2064657374696E6F2E0042616A31
:10137E00616E646F20626172726572612E2E2E0034
:10138E0042616E64656A6120656E20706F73696379
:10139E0069C3B36E20696E696369616C2E0053690F
:1013AE007374656D61206C6973746F207061726106
:1013BE0020756E206E7565766F2074726162616A3B
:1013CE006F2E004552524F523A204E6F206C6C6574
:1013DE0067C3B320616C2064657374696E6F2E00F1
:00000001FF
