:100000000C945D000C9485000C9485000C94850084
:100010000C9485000C9485000C9485000C9485004C
:100020000C9485000C9485000C9485000C94BD0301
:100030000C9485000C9485000C9485000C9485002C
:100040000C941B030C9485000C948B030C94650397
:100050000C9485000C9485000C9485000C9485000C
:100060000C9485000C94850000000008000201003B
:100070000003040700000000000000000000000072
:10008000250028002B0000000000240027002A0083
:10009000040404040404040402020202020203032E
:1000A0000303030301020408102040800102040836
:1000B0001020010204081020790411241FBECFEF84
:1000C000D8E0DEBFCDBF12E0A0E0B1E0ECE1FFE0A0
:1000D00002C005900D92AA3CB107D9F723E0AAEC23
:1000E000B2E001C01D92AD39B207E1F710E0CDE5F5
:1000F000D0E004C02197FE010E948607CC35D107CD
:10010000C9F70E94D6040C948C070C9400008F92BF
:100110009F92AF92BF92FF920F931F93CF93DF9363
:10012000F0909A032BE02F1508F44CC020919C030B
:1001300008E512E0021B110927FD1395000F111F9E
:10014000000F111F20919B03C8E8D0E0C21BD1090A
:1001500027FDD395CC0FDD1FCC0FDD1F4E010D2EDB
:10016000000CAA08BB089801012E000C440B550B8B
:10017000281939094A095B09DC010E94410724EB6F
:1001800030E040E050E00E941707820E931EA41E4C
:10019000B51E8C169D062CF0E801801691060CF415
:1001A000E4012297CC0FDD1F2FB7F8948F2D90E03C
:1001B000FC01EE0FFF1FE80FF91FEB58FC4FD28335
:1001C000C1832FBFDF91CF911F910F91FF90BF90FF
:1001D000AF909F908F90089590E0FC01EC55FF4FF9
:1001E000249180579F4FFC018491882399F090E0DF
:1001F000880F991FFC01EA57FF4FA591B491FC01AC
:10020000E458FF4F859194918FB7F894EC91E22BCD
:10021000EC938FBF089590E0FC01E859FF4F2491C3
:10022000FC01EC55FF4F3491FC01E057FF4FE49186
:10023000EE23C9F0222339F0233001F1A8F4213054
:1002400019F1223029F1F0E0EE0FFF1FE458FF4FC3
:10025000A591B4918FB7F894EC91611126C03095B7
:100260003E233C938FBF08952730A9F02830C9F072
:10027000243049F7809180008F7D03C080918000F9
:100280008F7780938000DFCF84B58F7784BDDBCFFD
:1002900084B58F7DFBCF8091B0008F778093B000C5
:1002A000D2CF8091B0008F7DF9CF3E2BDACF3FB710
:1002B000F8948091D4029091D502A091D602B09189
:1002C000D70226B5A89B05C02F3F19F00196A11DA6
:1002D000B11D3FBFBA2FA92F982F8827BC01CD0190
:1002E000620F711D811D911D42E0660F771F881FEF
:1002F000991F4A95D1F708958F929F92AF92BF921E
:10030000CF92DF92EF92FF924B015C010E94570166
:100310006B017C010E9457016C197D098E099F09B0
:10032000683E734081059105A8F321E0821A910887
:10033000A108B10888EEC80E83E0D81EE11CF11CAC
:1003400081149104A104B10429F7FF90EF90DF908C
:10035000CF90BF90AF909F908F900895AF92BF9233
:10036000CF92DF92EF92FF920F931F93CF93DF9381
:100370006C017B018B01040F151FEB015E01AE18B0
:10038000BF08C017D10759F06991D601ED91FC91D2
:100390000190F081E02DC6010995892B79F7C501FF
:1003A000DF91CF911F910F91FF90EF90DF90CF9051
:1003B000BF90AF900895FC01538D448D252F30E000
:1003C000842F90E0821B930B541710F0CF96089562
:1003D00001970895FC01918D828D981761F0A28D8F
:1003E000AE0FBF2FB11D5D968C91928D9F5F9F7355
:1003F000928F90E008958FEF9FEF0895FC01918D0B
:10040000828D981731F0828DE80FF11D858D90E077
:1004100008958FEF9FEF0895FC01918D228D892F14
:1004200090E0805C9F4F821B91098F7399270895FC
:1004300088ED92E00E940C0221E0892B09F420E073
:10044000822F089580E090E0892B29F00E94180205
:1004500081110C9400000895FC01A48DA80FB92F00
:10046000B11DA35ABF4F2C91848D90E001968F73DC
:100470009927848FA689B7892C93A089B1898C91FB
:10048000837080648C93938D848D981306C002884A
:10049000F389E02D80818F7D80830895EF92FF9214
:1004A0000F931F93CF93DF93EC0181E0888F9B8D97
:1004B0008C8D98131AC0E889F989808185FF15C051
:1004C0009FB7F894EE89FF896083E889F989808174
:1004D0008370806480839FBF81E090E0DF91CF9143
:1004E0001F910F91FF90EF900895F62E0B8D10E065
:1004F0000F5F1F4F0F731127E02E8C8D8E110CC0D4
:100500000FB607FCFACFE889F989808185FFF5CF1E
:10051000CE010E942C02F1CFEB8DEC0FFD2FF11DCF
:10052000E35AFF4FF0829FB7F8940B8FEA89FB895B
:1005300080818062CFCFCF93DF93EC01888D8823B9
:10054000B9F0AA89BB89E889F9898C9185FD03C036
:10055000808186FD0DC00FB607FCF7CF8C9185FF1B
:10056000F2CF808185FFEDCFCE010E942C02E9CF32
:10057000DF91CF910895FC0101900020E9F73197B8
:10058000AF01481B590BBC0188ED92E00C94AE0101
:10059000CF93DF930E94BB02EC0184E191E00E94C3
:1005A000BB028C0F9D1FDF91CF910895CF93DF93F6
:1005B0002091CA023091CB0228173907D1F0EC0103
:1005C0009093CB028093CA0260E088E00E940B0106
:1005D00060E089E00E940B0160E08AE00E940B016C
:1005E000C130D10599F040F0C230D105B1F0239768
:1005F000D9F0DF91CF91089561E088E00E940B016E
:1006000087E191E0DF91CF910C94C80261E089E02D
:100610000E940B018FE291E0F5CF61E08AE00E9439
:100620000B0189E491E0EECF61E08BE00E940B01C9
:1006300085E691E0E7CF1F920F920FB60F9211243B
:100640002F933F938F939F93AF93BF938091D0024B
:100650009091D102A091D202B091D3023091CF02F9
:1006600023E0230F2D3758F50196A11DB11D2093CE
:10067000CF028093D0029093D102A093D202B09384
:10068000D3028091D4029091D502A091D602B0916C
:10069000D7020196A11DB11D8093D4029093D5027B
:1006A000A093D602B093D702BF91AF919F918F9143
:1006B0003F912F910F900FBE0F901F90189526E835
:1006C000230F0296A11DB11DD2CF1F920F920FB61C
:1006D0000F9211242F933F934F935F936F937F93C8
:1006E0008F939F93AF93BF93EF93FF9388ED92E027
:1006F0000E942C02FF91EF91BF91AF919F918F913A
:100700007F916F915F914F913F912F910F900FBE0D
:100710000F901F9018951F920F920FB60F921124F1
:100720002F938F939F93EF93FF93E091E802F091C3
:10073000E9028081E091EE02F091EF0282FD1BC0A0
:1007400090818091F1028F5F8F732091F202821766
:1007500041F0E091F102F0E0E852FD4F958F809377
:10076000F102FF91EF919F918F912F910F900FBE0A
:100770000F901F9018958081F4CF1F920F920FB6A3
:100780000F9211242F933F934F935F936F937F9317
:100790008F939F93AF93BF93CF93DF93EF93FF9389
:1007A0008091CC02C0919903D0E087FF24C01092C1
:1007B0008500109284008091CC028F5F8093CC02E0
:1007C0008091CC02082E000C990B8C179D0724F405
:1007D0008091CC028C30C4F180918400909185008E
:1007E000049680349C4908F47AC0809184009091EA
:1007F0008500049676C08091CC02082E000C990BDF
:100800008C179D07C4F6E091CC028E2FEE0F990B4A
:10081000FC01EE0FFF1FE80FF91FEB58FC4F808122
:1008200086FFC9CFE091CC028E2FEE0F990BFC0111
:10083000EE0FFF1FE80FF91FEB58FC4F808160E0BF
:100840008F730E940B01B7CF2091840030918500F7
:10085000E091CC028E2FEE0F990BFC01EE0FFF1FE3
:10086000E80FF91FEB58FC4F81819281820F931F93
:100870009093890080938800E091CC028E2FEE0F38
:10088000990BFC01EE0FFF1FE80FF91FEB58FC4F0F
:10089000808186FF11C0E091CC028E2FEE0F990B64
:1008A000FC01EE0FFF1FE80FF91FEB58FC4F808192
:1008B00061E08F730E940B01FF91EF91DF91CF9167
:1008C000BF91AF919F918F917F916F915F914F9168
:1008D0003F912F910F900FBE0F901F90189580E4BD
:1008E0009CE990938900809388008FEF8093CC02DD
:1008F000E3CF1092DB021092DA0288EE93E0A0E0E0
:10090000B0E08093DC029093DD02A093DE02B0930E
:10091000DF0286E091E09093D9028093D80285ECC3
:1009200090E09093E5028093E40284EC90E0909351
:10093000E7028093E60280EC90E09093E9028093D6
:10094000E80281EC90E09093EB028093EA0282EC63
:1009500090E09093ED028093EC0286EC90E090930F
:10096000EF028093EE021092F1021092F2021092C6
:10097000F3021092F402809199038C3098F491E084
:10098000980F9093990380939A0390E0FC01EE0FE7
:10099000FF1FE80FF91FEB58FC4F88EB9BE0928399
:1009A000818308958FEF80939A030895CF93DF9307
:1009B000CDB7DEB7A1970FB6F894DEBF0FBECDBF9F
:1009C000789484B5826084BD84B5816084BD85B52A
:1009D000826085BD85B5816085BD80916E00816036
:1009E00080936E00109281008091810082608093DC
:1009F00081008091810081608093810080918000DE
:100A00008160809380008091B10084608093B10008
:100A10008091B00081608093B00080917A00846002
:100A200080937A0080917A00826080937A0080912E
:100A30007A00816080937A0080917A008068809348
:100A40007A001092C100E091E802F091E90282E0A0
:100A50008083E091E402F091E5021082E091E602E9
:100A6000F091E70280E180831092F002E091EC02C5
:100A7000F091ED0286E08083E091EA02F091EB02D2
:100A8000808180618083E091EA02F091EB028081B5
:100A900088608083E091EA02F091EB0280818068B7
:100AA0008083E091EA02F091EB0280818F7D808368
:100AB00080919A038C3008F050C085E00E94EC00D1
:100AC00080919A03282F30E0F901EE0FFF1FE20F0B
:100AD000F31FEB58FC4F9081907C956090831092AF
:100AE0009B0310929C032CE0622F0E947A07829F46
:100AF000B001112430E020E0AB01420F531FFA0196
:100B0000EE0FFF1FE40FF51FEB58FC4F908196FD91
:100B100016C02F5F3F4F2C30310571F781110FC088
:100B20001092800082E080938100109285001092E4
:100B30008400B19A80916F00826080936F00E09191
:100B40009A038E2F90E0FC01EE0FFF1FE80FF91FB4
:100B5000EB58FC4F8081806480838AE590E00E949E
:100B6000870082E00E94EC0083E00E94EC0084E0B9
:100B70000E94EC0088E00E94EC0089E00E94EC00FA
:100B80008AE00E94EC008BE00E94EC0090E080E0A4
:100B90000E94D60260E084E00E940B0181E791E0B0
:100BA0000E94C80283E891E00E94C80281EA91E0B5
:100BB0000E94C8023AE0432E512C612C712C0BE7A5
:100BC0001CE040E0242E40E0342E9924939420E44D
:100BD000822E90E080E00E94D60280927C0080917C
:100BE0007A00806480937A0080917A0086FDFCCF41
:100BF000E0907800F09079008091000190910101DF
:100C00009701281B390BC90137FF03C091958195C6
:100C100091094597C4F187EB91E00E94BB0257010F
:100C20000F2C000CCC08DD08D7FE48C06DE288ED23
:100C300092E00E944E0222273327A9012A193B097C
:100C40004C095D0919A2CE0181966C01CA01B90156
:100C5000A30192010E944907605DF60162936F0152
:100C6000211531054105510589F7C114D10419F049
:100C7000C6010E94BB0284E191E00E94BB02F09297
:100C80000101E09200018091CD02F4E6EF16F1043B
:100C90005CF581110CC081E090E00E94D6028DEBE2
:100CA00091E00E94C8029092CD029092CE0268EC30
:100CB00070E080E090E00E947C018FCFA60195015A
:100CC00019A2CE0181966C01CA01B901A30192015A
:100CD0000E944907605DF60162936F01211531059D
:100CE0004105510589F7C1CF882309F31092CD0240
:100CF00085ED91E00E94C8028FEE91E00E94C8024B
:100D000068E873E180E090E00E947C0187E092E077
:100D10000E94C8028091CE02882309F47CC088E139
:100D200092E00E94C80289E392E00E94C8028CE42B
:100D300092E00E94C80288E192E00E94C80282E02C
:100D400090E00E94D60261E083E00E940B0190EDEA
:100D5000E92E97E0F92E61E082E00E940B01C801C4
:100D60000197F1F760E082E00E940B01C801019752
:100D7000F1F721E0E21AF10871F764EF71E080E029
:100D800090E00E947C0180E692E00E94C80290E020
:100D900080E00E9487006CEB72E080E090E00E94AF
:100DA0007C0160E083E00E940B0180EDE82E87E08B
:100DB000F82E61E082E00E940B01C8010197F1F773
:100DC00060E082E00E940B01C8010197F1F731E079
:100DD000E31AF10871F783E792E00E94C8021092CB
:100DE000CE0281E992E00E94C8028AE590E00E946A
:100DF00087006CEB72E080E090E00E947C0190E064
:100E000080E00E94D60285EA92E00E94C80284E156
:100E100091E00E94BB022114310409F4DACE0E9451
:100E20001802882309F4D5CE0E940000D0CE052EEA
:100E300097FB1EF400940E942E0757FD07D00E94D6
:100E4000490707FC03D04EF40C942E0750954095AB
:100E5000309521953F4F4F4F5F4F08959095809566
:100E6000709561957F4F8F4F9F4F08950E946B073C
:100E7000A59F900DB49F900DA49F800D911D1124EE
:100E80000895B7FF0C9436070E943607821B930B18
:100E90000895A1E21A2EAA1BBB1BFD010DC0AA1FBB
:100EA000BB1FEE1FFF1FA217B307E407F50720F0D3
:100EB000A21BB30BE40BF50B661F771F881F991F4E
:100EC0001A9469F760957095809590959B01AC0197
:100ED000BD01CF010895A29FB001B39FC001A39FA0
:100EE000700D811D1124911DB29F700D811D112463
:100EF000911D0895991B79E004C0991F961708F079
:100F0000961B881F7A95C9F780950895EE0FFF1FED
:0C0F10000590F491E02D0994F894FFCFB7
:100F1C00FFFF000000004E02AE01DB019B020C0241
:100F2C00EA01FE010D0A005B4C45445D20457374DB
:100F3C0061646F3A204553504552414E444F005B1B
:100F4C004C45445D2045737461646F3A20494D50A3
:100F5C0052494D49454E444F005B4C45445D20453C
:100F6C00737461646F3A205452414E53504F525433
:100F7C00414E444F005B4C45445D204552524F520C
:100F8C000053697374656D6120696E69636961648E
:100F9C006F2E004261727265726120656E20706FF7
:100FAC0073696369C3B36E20696E696369616C2E82
:100FBC00004573706572616E646F2074726162615A
:100FCC006A6F732E2E2E004C757A3A20003E3E3EF0
:100FDC0020496D7072657369C3B36E20696E696365
:100FEC0069616461003E3E3E20496D7072657369B3
:100FFC00C3B36E2066696E616C697A616461004589
:10100C0073706572616E646F203520736567756EE1
:10101C00646F732E2E2E005469656D706F2063758E
:10102C006D706C69646F2E002D2D2D2D2D2D2D2D99
:10103C002D2D2D2D2D2D2D2D2D2D2D2D2D2D2D2DD4
:10104C002D2D2D2D2D2D2D2D0054726162616A6F69
:10105C002064657465637461646F2E004D6F7669EE
:10106C00656E646F2062616E64656A612E2E2E005F
:10107C0042616A616E646F20626172726572612E88
:10108C002E2E0042616E64656A6120656E20706F61
:10109C0073696369C3B36E20696E696369616C2E91
:1010AC000053756269656E646F206261727265725D
:1010BC00612E2E2E0053697374656D61206C6973FB
:1010CC00746F207061726120756E206E7565766F1D
:0A10DC002074726162616A6F2E00D9
:00000001FF
